:020000040800F2
:1000000000280020B1150008A9110008AF11000850
:10001000B5110008BB110008C11100080000000064
:10002000000000000000000000000000C7110008F0
:10003000D311000800000000DF110008EB110008D8
:10004000F9150008F9150008F9150008F915000858
:10005000F9150008F9150008F9150008F915000848
:10006000F9150008F9150008F9150008F915000838
:10007000F9150008F9150008F9150008F915000828
:10008000F9150008F9150008F9110008F91500081C
:10009000F9150008F9150008F9150008F915000808
:1000A000F9150008F9150008F9150008F9150008F8
:1000B0000D120008F915000800000000F9150008ED
:1000C000F91500080000000000000000F915000804
:1000D00000000000F91500082112000800000000CF
:1000E000F9150008F9150008F915000800000000CE
:1000F0000000000000000000000000000000000000
:0C01000000000000000000005FF808F1A3
:1001100010B5054C237833B9044B13B10448AFF341
:1001200000800123237010BDF001002000000000BA
:100130000072000808B5034B1BB103490348AFF335
:10014000008008BD00000000F401002000720008DB
:10015000034613F8012B002AFBD1181A0138704707
:1001600081F0004102E000BF83F0004330B54FEA68
:1001700041044FEA430594EA050F08BF90EA020FD5
:100180001FBF54EA000C55EA020C7FEA645C7FEA68
:10019000655C00F0E2804FEA5454D4EB5555B8BF8B
:1001A0006D420CDD2C4480EA020281EA030382EAFC
:1001B000000083EA010180EA020281EA0303362D8E
:1001C00088BF30BD11F0004F4FEA01314FF4801C61
:1001D0004CEA113102D0404261EB410113F0004F73
:1001E0004FEA03334CEA133302D0524263EB43032A
:1001F00094EA050F00F0A780A4F10104D5F1200EC8
:100200000DDB02FA0EFC22FA05F2801841F1000122
:1002100003FA0EF2801843FA05F359410EE0A5F1F6
:1002200020050EF1200E012A03FA0EFC28BF4CF027
:10023000020C43FA05F3C01851EBE37101F00045DD
:1002400007D54FF0000EDCF1000C7EEB00006EEBEA
:100250000101B1F5801F1BD3B1F5001F0CD3490874
:100260005FEA30004FEA3C0C04F101044FEA4452CB
:1002700012F5800F80F09A80BCF1004F08BF5FEA52
:10028000500C50F1000041EB045141EA050130BD32
:100290005FEA4C0C404141EB0101013C28BFB1F544
:1002A000801FE9D291F0000F04BF01460020B1FA8F
:1002B00081F308BF2033A3F10B03B3F120020CDA62
:1002C0000C3208DD02F1140CC2F10C0201FA0CF040
:1002D00021FA02F10CE002F11402D8BFC2F1200CA5
:1002E00001FA02F120FA0CFCDCBF41EA0C0190405B
:1002F000E41AA2BF01EB0451294330BD6FEA0404A4
:100300001F3C1CDA0C340EDC04F11404C4F120028E
:1003100020FA04F001FA02F340EA030021FA04F3A0
:1003200045EA030130BDC4F10C04C4F1200220FAF7
:1003300002F001FA04F340EA0300294630BD21FA35
:1003400004F0294630BD94F0000F83F4801306BFFB
:1003500081F480110134013D4EE77FEA645C18BFEF
:100360007FEA655C29D094EA050F08BF90EA020F86
:1003700005D054EA000C04BF1946104630BD91EA7E
:10038000030F1EBF0021002030BD5FEA545C05D181
:100390004000494128BF41F0004130BD14F58004C0
:1003A0003CBF01F5801130BD01F0004545F0FE4134
:1003B00041F470014FF0000030BD7FEA645C1ABF69
:1003C000194610467FEA655C1CBF0B46024650EAA0
:1003D000013406BF52EA033591EA030F41F40021CC
:1003E00030BD00BF90F0000F04BF0021704730B552
:1003F0004FF4806404F132044FF000054FF0000127
:1004000050E700BF90F0000F04BF0021704730B5E7
:100410004FF4806404F1320410F0004548BF4042BC
:100420004FF000013EE700BF42004FEAE2014FEA11
:1004300031014FEA02701FBF12F07F4393F07F4FEC
:1004400081F06051704732F07F4208BF704793F0EF
:100450007F4F04BF41F40021704730B54FF4607402
:1004600001F0004521F000411CE700BF50EA010205
:1004700008BF704730B54FF000050AE050EA0102AE
:1004800008BF704730B511F0004502D5404261EB1E
:1004900041014FF4806404F132045FEA915C3FF45F
:1004A000D8AE4FF003025FEADC0C18BF03325FEAFC
:1004B000DC0C18BF033202EBDC02C2F1200300FAAD
:1004C00003FC20FA02F001FA03FE40EA0E0021FAD2
:1004D00002F11444BDE600BF70B54FF0FF0C4CF4C0
:1004E000E06C1CEA11541DBF1CEA135594EA0C0F72
:1004F00095EA0C0F00F0DEF82C4481EA030621EAAD
:100500004C5123EA4C5350EA013518BF52EA0335E7
:1005100041F4801143F4801338D0A0FB02CE4FF099
:100520000005E1FB02E506F00042E0FB03E54FF0C9
:100530000006E1FB03569CF0000F18BF4EF0010EC1
:10054000A4F1FF04B6F5007F64F5407404D25FEABD
:100550004E0E6D4146EB060642EAC62141EA555170
:100560004FEAC52040EA5E504FEACE2EB4F1FD0CB2
:1005700088BFBCF5E06F1ED8BEF1004F08BF5FEA30
:10058000500E50F1000041EB045170BD06F00046E2
:1005900046EA010140EA020081EA0301B4EB5C048F
:1005A000C2BFD4EB0C0541EA045170BD41F4801187
:1005B0004FF0000E013C00F3AB8014F1360FDEBFAC
:1005C000002001F0004170BDC4F10004203C35DA88
:1005D0000C341BDC04F11404C4F1200500FA05F30B
:1005E00020FA04F001FA05F240EA020001F00042AC
:1005F00021F0004110EBD37021FA04F642EB060122
:100600005EEA430E08BF20EAD37070BDC4F10C044B
:10061000C4F1200500FA04F320FA05F001FA04F20F
:1006200040EA020001F0004110EBD37041F10001FB
:100630005EEA430E08BF20EAD37070BDC4F1200506
:1006400000FA05F24EEA020E20FA04F301FA05F26E
:1006500043EA020321FA04F001F0004121FA04F216
:1006600020EA020000EBD3705EEA430E08BF20EAE6
:10067000D37070BD94F0000F0FD101F00046400020
:1006800041EB010111F4801F08BF013CF7D041EAA2
:10069000060195F0000F18BF704703F000465200A6
:1006A00043EB030313F4801F08BF013DF7D043EA77
:1006B0000603704794EA0C0F0CEA135518BF95EA2D
:1006C0000C0F0CD050EA410618BF52EA4306D1D1B4
:1006D00081EA030101F000414FF0000070BD50EAD3
:1006E000410606BF1046194652EA430619D094EA5D
:1006F0000C0F02D150EA013613D195EA0C0F05D147
:1007000052EA03361CBF104619460AD181EA03019A
:1007100001F0004141F0FE4141F470014FF0000052
:1007200070BD41F0FE4141F4780170BD70B54FF0ED
:10073000FF0C4CF4E06C1CEA11541DBF1CEA13556D
:1007400094EA0C0F95EA0C0F00F0A7F8A4EB05044F
:1007500081EA030E52EA03354FEA013100F0888046
:100760004FEA03334FF0805545EA131343EA12630F
:100770004FEA022245EA111545EA10654FEA0026C4
:100780000EF000419D4208BF964244F1FD0404F57D
:10079000407402D25B084FEA3202B61A65EB0305D9
:1007A0005B084FEA32024FF480104FF4002CB6EB96
:1007B000020E75EB030E22BFB61A754640EA0C0016
:1007C0005B084FEA3202B6EB020E75EB030E22BF56
:1007D000B61A754640EA5C005B084FEA3202B6EB97
:1007E000020E75EB030E22BFB61A754640EA9C0056
:1007F0005B084FEA3202B6EB020E75EB030E22BF26
:10080000B61A754640EADC0055EA060E18D04FEAE3
:10081000051545EA16754FEA06164FEAC30343EA83
:1008200052734FEAC2025FEA1C1CC0D111F4801F50
:100830000BD141EA00014FF000004FF0004CB6E749
:1008400011F4801F04BF01430020B4F1FD0C88BFE8
:10085000BCF5E06F3FF6AFAEB5EB030C04BFB6EBF3
:10086000020C5FEA500C50F1000041EB045170BDE6
:100870000EF0004E4EEA113114EB5C04C2BFD4EB13
:100880000C0541EA045170BD41F480114FF0000E97
:10089000013C90E645EA060E8DE60CEA135594EA13
:1008A0000C0F08BF95EA0C0F3FF43BAF94EA0C0F16
:1008B0000AD150EA01347FF434AF95EA0C0F7FF48B
:1008C00025AF104619462CE795EA0C0F06D152EADF
:1008D00003353FF4FDAE1046194622E750EA4106C3
:1008E00018BF52EA43067FF4C5AE50EA41047FF4D4
:1008F0000DAF52EA43057FF4EBAE12E74FF0FF3C39
:1009000006E000BF4FF0010C02E000BF4FF0010C09
:100910004DF804CD4FEA410C7FEA6C5C4FEA430C82
:1009200018BF7FEA6C5C1BD001B050EA410C0CBFD1
:1009300052EA430C91EA030F02BF90EA020F002033
:10094000704710F1000F91EA030F58BF994208BF9A
:1009500090422CBFD8176FEAE37040F00100704757
:100960004FEA410C7FEA6C5C02D150EA013C07D1AE
:100970004FEA430C7FEA6C5CD6D152EA033CD3D0F9
:100980005DF8040B704700BF8446104662468C46F3
:100990001946634600E000BF01B5FFF7B7FF002826
:1009A00048BF10F1000F01BD4DF808EDFFF7F4FF4F
:1009B0000CBF012000205DF808FB00BF4DF808EDDA
:1009C000FFF7EAFF34BF012000205DF808FB00BFFD
:1009D0004DF808EDFFF7E0FF94BF012000205DF81F
:1009E00008FB00BF4DF808EDFFF7CEFF94BF0120D4
:1009F00000205DF808FB00BF4DF808EDFFF7C4FFCD
:100A000034BF012000205DF808FB00BF4FEA410C15
:100A10007FEA6C5C02D150EA013C0AD14FEA430CF8
:100A20007FEA6C5C02D152EA033C02D14FF0000035
:100A300070474FF0010070474FEA410212F5001273
:100A400015D211D56FF47873B3EB625212D94FEA15
:100A5000C12343F0004343EA505311F0004F23FAFF
:100A600002F018BF404270474FF00000704750EA54
:100A7000013005D111F0004008BF6FF00040704711
:100A80004FF00000704700BF4FEA4102B2F1E0436F
:100A900024BFB3F5001CDCF1FE5C0DD901F0004C65
:100AA0004FEAC0024CEA5070B2F1004F40EB8300B5
:100AB00008BF20F00100704711F0804F21D113F1E1
:100AC0003872BCBF01F00040704741F480114FEA1A
:100AD0005252C2F11802C2F1200C10FA0CF320FAA3
:100AE00002F018BF40F001004FEAC1234FEAD323C0
:100AF00003FA0CFC40EA0C0023FA02F34FEA43032A
:100B0000CCE77FEA625307D150EA01331EBF4FF0B2
:100B1000FE4040F44000704701F0004040F0FE40CD
:100B200040F40000704700BF80B500AF024800F0FD
:100B30009FFE00BF80BD00BF1402002080B500AF43
:100B4000034800F043FF0346024A136000BF80BD24
:100B5000140200200C02002080B586B000AF2021D6
:100B6000214801F001FD214B1B681846FFF73AFCB4
:100B70001BA3D3E90023FFF7D9FD02460B4610461D
:100B800019464FF000021A4BFFF7A6FC02460B462F
:100B900010461946FFF778FF03463B613869FFF7B7
:100BA00043FC02460B46381D124904F0AFF80346D9
:100BB000FB730023FB750AE0FB7D3A1DD11832233D
:100BC00001220D4802F0E8FDFB7D0133FB75FA7D43
:100BD000FB7B9A42F0D300BF00BF1837BD4680BDF3
:100BE0000000000000FEAF40000801400C020020A1
:100BF00000001440187200088C02002080B400AF7E
:100C0000034B00221A7000BFBD4680BC704700BF76
:100C10000000002080B500AF3C4B1B78032B69D847
:100C200001A252F823F000BF390C0008550C00084F
:100C3000990C0008B10C000800F074FC0346212B4D
:100C40005AD1324B01221A70FFF778FF304B012244
:100C50001A7051E000F066FC03461A462C4B1B78D4
:100C600019462C4B5B5C9A4203D0284B00221A7029
:100C700044E0274B1B780133DAB2254B1A70244B22
:100C80001A78254B1B789A4238D1244B01221A70CE
:100C90001E4B02221A7031E000F044FC0346212B67
:100CA0002ED11A4B03221A70194B01221A7027E019
:100CB00000F038FC03461A46154B1B781946184BB2
:100CC0005B5C9A4203D0114B02221A701AE0104B5F
:100CD0001B780133DAB20E4B1A700D4B1A78114B98
:100CE0001B789A420ED1104B01221A70074B00223A
:100CF0001A7007E000BF06E000BF04E000BF02E09A
:100D000000BF00E000BF00BF80BD00BF00000020AA
:100D10001002002004000020090000201102002021
:100D20000C000020100000201202002080B500AF4F
:100D300000F064FC00F020F800F022F900F06CF8FC
:100D400000F0F4F800F0A6F800F0DEFBFFF756FF25
:100D5000FFF7EAFE00F034FB00F088FB054B1B7840
:100D6000012B04D1FFF756FF024B00221A7000F04E
:100D700089FBF3E70303002080B594B000AF07F1CF
:100D8000280328220021184603F058FB07F114031A
:100D900000221A605A609A60DA601A613B1D0022D4
:100DA0001A605A609A60DA600223BB620123BB6357
:100DB0001023FB6300237B6407F12803184601F02E
:100DC000EDFB0346002B01D000F00CF90F237B61F3
:100DD0000023BB610023FB6100233B6200237B6295
:100DE00007F114030021184601F05AFE0346002BB8
:100DF00001D000F0F7F802237B600023FB603B1D6D
:100E0000184601F0DBFF0346002B01D000F0EAF8A2
:100E100000BF5037BD4680BD80B584B000AF3B1DDC
:100E200000221A605A609A60184B194A1A60174BD0
:100E300000229A60154B01221A73144B00221A7576
:100E4000124B4FF46022DA61104B00225A600F4BB4
:100E500001221A610D4800F033FC0346002B01D03B
:100E600000F0C0F800237B600123BB600023FB601F
:100E70003B1D1946054800F087FE0346002B01D0B4
:100E800000F0B0F800BF1037BD4680BD140200204E
:100E90000024014080B586B000AF07F108030022AE
:100EA0001A605A609A60DA603B4600221A605A6003
:100EB0001D4B4FF080421A601B4B09225A601A4B9F
:100EC00000229A60184B41F63F72DA60164B0022FE
:100ED0001A61154B00229A61134802F025F8034667
:100EE000002B01D000F07EF84FF48053BB6007F177
:100EF000080319460C4802F0BBF90346002B01D049
:100F000000F070F800233B6000237B603B461946ED
:100F1000054802F087FB0346002B01D000F062F881
:100F200000BF1837BD4680BD4402002080B500AF29
:100F3000114B124A1A60104B4FF416525A600E4B66
:100F400000229A600C4B0022DA600B4B00221A61DF
:100F5000094B0C225A61084B00229A61064B002271
:100F6000DA61054802F0C8FB0346002B01D000F00F
:100F700039F800BF80BD00BF8C0200200044004053
:100F800080B586B000AF07F1080300221A605A60EE
:100F90009A60DA60114B9B69104A43F00403936135
:100FA0000E4B9B6903F004037B607B6800222021C9
:100FB0000B4801F0C1FA2023BB600123FB60002332
:100FC0003B6102237B6107F108031946044801F0E5
:100FD00037F900BF1837BD4680BD00BF0010024082
:100FE0000008014080B400AF72B600BFFEE7000009
:100FF00080B483B000AF0E4B9B690D4A43F00103F0
:1010000093610B4B9B6903F001037B607B68084B8A
:10101000DB69074A43F08053D361054BDB6903F07A
:1010200080533B603B6800BF0C37BD4680BC7047B7
:101030000010024080B588B000AF786007F110035F
:1010400000221A605A609A60DA607B681B68184A4E
:10105000934229D1174B9B69164A43F4007393615D
:10106000144B9B6903F40073FB60FB68114B9B6995
:10107000104A43F0040393610E4B9B6903F0040391
:10108000BB60BB6801233B6103237B6107F1100355
:101090001946094801F0D4F800220021122000F07E
:1010A000E6FF122000F0FFFF00BF2037BD4680BDE5
:1010B00000240140001002400008014080B584B0C7
:1010C00000AF78607B681B68B3F1804F13D10C4B85
:1010D000DB690B4A43F00103D361094BDB6903F081
:1010E0000103FB60FB68002200211C2000F0BFFF11
:1010F0001C2000F0D8FF00BF1037BD4680BD00BFE8
:101100000010024080B588B000AF786007F110038E
:1011100000221A605A609A60DA607B681B681F4A76
:10112000934237D11E4BDB691D4A43F40033D36130
:101130001B4BDB6903F40033FB60FB68184B9B69B6
:10114000174A43F004039361154B9B6903F00403B2
:10115000BB60BB6804233B6102237B610323FB610B
:1011600007F1100319460F4801F06AF808233B61A4
:1011700000237B610023BB6107F110031946094876
:1011800001F05EF800220021262000F070FF2620EA
:1011900000F089FF00BF2037BD4680BD00440040FD
:1011A000001002400008014080B400AFFEE780B4A8
:1011B00000AFFEE780B400AFFEE780B400AFFEE70B
:1011C00080B400AFFEE780B400AF00BFBD4680BC76
:1011D000704780B400AF00BFBD4680BC704780B48C
:1011E00000AF00BFBD4680BC704780B500AF00F0C7
:1011F0004BFA00BF80BD000080B500AF024800F090
:10120000F1FB00BF80BD00BF1402002080B500AF1D
:10121000024801F025FF00BF80BD00BF440200204E
:1012200080B500AF024802F05FFB00BF80BD00BF89
:101230008C02002080B400AF01231846BD4680BC5C
:10124000704780B582B000AF7860396003F0CCF8A9
:10125000034616221A604FF0FF3318460837BD4682
:1012600080BD80B582B000AF78604FF0FF31786804
:10127000FFF7E7FFFEE780B586B000AFF860B96022
:101280007A6000237B610AE0AFF300800146BB680F
:101290005A1CBA60CAB21A707B6901337B617A69E1
:1012A0007B689A42F0DB7B6818461837BD4680BDE4
:1012B00080B586B000AFF860B9607A6000237B61CA
:1012C00009E0BB685A1CBA601B781846AFF300806F
:1012D0007B6901337B617A697B689A42F1DB7B68C9
:1012E00018461837BD4680BD80B483B000AF786023
:1012F0004FF0FF3318460C37BD4680BC704780B4B2
:1013000083B000AF786039603B684FF400525A6098
:10131000002318460C37BD4680BC704780B483B0AC
:1013200000AF7860012318460C37BD4680BC70477B
:1013300080B485B000AFF860B9607A6000231846C9
:101340001437BD4680BC704780B586B000AF78606A
:10135000144A154BD31A7B617B693B61134B1B68A5
:10136000002B02D1114B124A1A60104B1A687B688D
:1013700013443A699A4207D203F036F803460C2226
:101380001A604FF0FF3309E0084B1B68FB60074B06
:101390001A687B681344054A1360FB6818461837BF
:1013A000BD4680BD0028002000040000D4020020BB
:1013B0001803002080B400AF00BFBD4680BC70475A
:1013C00080B500AF024801F0FFFD00BF80BD00BF47
:1013D0004402002080B483B000AF78607B68084A84
:1013E00082FB03129210DB17D31A064A1360064BD6
:1013F00000221A6000BF0C37BD4680BC704700BF9A
:1014000067666666DC020020D802002080B400AF68
:10141000024B1B681846BD4680BC7047D8020020AE
:1014200080B400AF074B1B68013B064A1360054BB5
:101430001B68002B02DC044B01221A6000BFBD4672
:1014400080BC7047DC020020D802002080B582B04A
:1014500000AF78607B681B68B3F1804F01D1FFF764
:10146000DFFF00BF0837BD4680BD000080B400AF7D
:10147000034B00221A7000BFBD4680BC704700BFFE
:10148000E002002080B500AF1C4B1B78022B1BD064
:10149000022B2CDC002B02D0012B0BD027E0184BA9
:1014A0001B78012B25D1154B01221A70144B0022F9
:1014B0001A701EE040F6B830FFF78CFFFFF74CFBC8
:1014C0000E4B02221A7017E00E4B1B78012B05D130
:1014D0000A4B00221A700B4B00221A70FFF796FF7E
:1014E0000346002B07D0054B01221A7003E000BF12
:1014F00002E000BF00E000BF00BF80BDE0020020AE
:10150000110200201202002080B500AF0122034921
:10151000034802F0C4F900BF80BD00BFE102002013
:101520008C02002080B400AF024B1B781846BD46E9
:1015300080BC7047E102002080B582B000AF7860C7
:101540007B681B68144A934221D13223012213493C
:10155000134802F021F9134B1B781A460F4B1978E8
:10156000114B99540F4B1B780133DAB20D4B1A70A3
:101570000C4B1B781E2B02D10A4B00221A700B4B0E
:1015800001221A7001220549054802F088F900BFBE
:101590000837BD4680BD00BF00440040E102002086
:1015A0008C02002002030020E4020020030300203C
:1015B000FFF700FF0B480C490C4A002302E0D45807
:1015C000C4500433C4188C42F9D3094A094C00238F
:1015D00001E013600432A242FBD302F00BFFFFF7DD
:1015E000A5FB704700000020F00100202C760008C9
:1015F000F001002018030020FEE7000080B500AFD6
:10160000084B1B68074A43F010031360032000F0E7
:1016100023FD0F2000F008F8FFF7EAFC002318462E
:1016200080BD00BF0020024080B582B000AF78606E
:10163000124B1A68124B1B7819464FF47A73B3FB9E
:10164000F1F3B2FBF3F3184600F03BFD0346002B29
:1016500001D001230EE07B680F2B0AD800227968A5
:101660004FF0FF3000F003FD064A7B681360002353
:1016700000E0012318460837BD4680BD1400002055
:101680001C0000201800002080B400AF054B1B7820
:101690001A46054B1B681344034A136000BFBD463E
:1016A00080BC70471C0000200403002080B400AF01
:1016B000024B1B681846BD4680BC704704030020DF
:1016C00080B586B000AF78600023FB7500233B61D6
:1016D0000023BB600023FB607B68002B01D101234A
:1016E000BEE07B689B68002B7B689B6A002B09D15E
:1016F0007B680022DA627B68002283F82420786805
:10170000FFF798FC786800F091FB0346FB757B6857
:101710009B6A03F01003002B40F09980FB7D002BA7
:1017200040F095807B689B6A23F4885323F0020382
:1017300043F002027B689A627B685A687B68DB69C7
:101740001A437B681B7B5B001343BA681343BB607F
:101750007B689B68B3F5807F03D07B689B68012B17
:1017600002D14FF4807300E000233A6913433B61D8
:101770007B681B7D012B19D17B681B7B002B09D15A
:101780007B689B69013B5A033B69134343F4006345
:101790003B610BE07B689B6A43F020027B689A62A6
:1017A0007B68DB6A43F001027B68DA627B681B6856
:1017B0005B6823F469417B681B683A690A435A6095
:1017C0007B681B689A68284B13407A681268B9686E
:1017D0000B4393607B689B68B3F5807F03D07B6885
:1017E0009B68012B04D17B681B69013B1B05FB60D7
:1017F0007B681B68DB6A23F470017B681B68FA68EE
:101800000A43DA627B681B689A68184B1340BA680F
:101810009A420BD17B680022DA627B689B6A23F0D4
:10182000030343F001027B689A6218E07B689B6ABD
:1018300023F0120343F010027B689A627B68DB6A34
:1018400043F001027B68DA620123FB7507E07B68E5
:101850009B6A43F010027B689A620123FB75FB7D53
:1018600018461837BD4680BDFDF7E1FFFE0E1FFF8D
:1018700080B584B000AF78600023FB737B6893F879
:101880002430012B01D1022398E07B68012283F8E8
:101890002420786800F070FA0346FB73FB7B002B72
:1018A00040F087807B689B6A23F4407323F0010338
:1018B00043F480727B689A627B681B68414A93425A
:1018C00005D1414B5B6803F47023002B15D17B6875
:1018D0009B6A23F480127B689A627B681B685B6852
:1018E00003F48063002B26D07B689B6A23F440536B
:1018F00043F480527B689A621DE07B689B6A43F4E4
:1019000080127B689A627B681B682F4A934204D0DE
:101910007B681B682B4A93420DD12B4B5B6803F409
:101920008063002B07D07B689B6A23F4405343F409
:1019300080527B689A627B689B6A03F48053002B19
:1019400006D07B68DB6A23F006027B68DA6202E07D
:101950007B680022DA627B68002283F824207B689F
:101960001B686FF002021A607B681B689B6803F4B7
:101970006023B3F5602F13D17B681B68114A934233
:1019800005D1114B5B6803F47023002B08D17B68F1
:101990001B689A687B681B6842F4A0029A600CE09E
:1019A0007B681B689A687B681B6842F480129A60A7
:1019B00003E07B68002283F82420FB7B1846103765
:1019C000BD4680BD002801400024014080B483B0A2
:1019D00000AF78607B681B68DB6C18460C37BD462F
:1019E00080BC704780B584B000AF78607B681B68AE
:1019F0001B68FB607B681B685B68BB60BB6803F0AF
:101A00002003002B3ED0FB6803F00203002B39D0EB
:101A10007B689B6A03F01003002B05D17B689B6AEF
:101A200043F400727B689A627B681B689B6803F4CE
:101A30006023B3F5602F1DD17B681B7B002B19D170
:101A40007B681B685A687B681B6822F020025A601A
:101A50007B689B6A23F480727B689A627B689B6ACE
:101A600003F48053002B05D17B689B6A43F001028D
:101A70007B689A62786800F074F87B681B686FF086
:101A800012021A60BB6803F08003002B4DD0FB6884
:101A900003F00403002B48D07B689B6A03F010031B
:101AA000002B05D17B689B6A43F400527B689A62E5
:101AB0007B681B689B6803F4E043B3F5E04F12D0EA
:101AC0007B681B685B6803F48063002B25D17B680F
:101AD0001B689B6803F46023B3F5602F1DD17B68FE
:101AE0001B7B002B19D17B681B685A687B681B68BD
:101AF00022F080025A607B689B6A23F480527B68E4
:101B00009A627B689B6A03F48073002B05D17B6823
:101B10009B6A43F001027B689A62786800F0C7F91B
:101B20007B681B686FF00C021A60BB6803F040030F
:101B3000002B12D0FB6803F00103002B0DD07B6853
:101B40009B6A43F480327B689A62786800F012F8EE
:101B50007B681B686FF001021A6000BF1037BD463A
:101B600080BD80B483B000AF786000BF0C37BD4645
:101B700080BC704780B483B000AF786000BF0C3782
:101B8000BD4680BC7047000080B485B000AF78606F
:101B900039600023FB730023BB607B6893F824301B
:101BA000012B01D10223DCE07B68012283F8242091
:101BB0003B685B68062B1CD87B681B68596B3B68CD
:101BC0005A6813469B001344053B1F2202FA03F395
:101BD000DB4319403B6818683B685A6813469B0012
:101BE0001344053B00FA03F27B681B680A435A63FF
:101BF0003CE03B685B680C2B1CD87B681B68196B4E
:101C00003B685A6813469B001344233B1F2202FA89
:101C100003F3DB4319403B6818683B685A68134676
:101C20009B001344233B00FA03F27B681B680A43C2
:101C30001A631BE07B681B68D96A3B685A681346C5
:101C40009B001344413B1F2202FA03F3DB4319407C
:101C50003B6818683B685A6813469B001344413B35
:101C600000FA03F27B681B680A43DA623B681B6870
:101C7000092B1CD97B681B68D9683B681A68134616
:101C80005B0013441E3B072202FA03F3DB431940B7
:101C90003B6898683B681A6813465B0013441E3B18
:101CA00000FA03F27B681B680A43DA6019E07B687C
:101CB0001B6819693B681A6813465B0013440722C6
:101CC00002FA03F3DB4319403B6898683B681A68E3
:101CD00013465B00134400FA03F27B681B680A4357
:101CE0001A613B681B68102B03D03B681B68112BE3
:101CF00032D17B681B681D4A934225D17B681B68E3
:101D00009B6803F40003002B26D17B681B689A684C
:101D10007B681B6842F400029A603B681B68102BCA
:101D20001AD1134B1B68134AA2FB03239A0C1346C8
:101D30009B0013445B00BB6002E0BB68013BBB60DF
:101D4000BB68002BF9D107E07B689B6A43F0200257
:101D50007B689A620123FB737B68002283F824204E
:101D6000FB7B18461437BD4680BC704700240140F9
:101D70001400002083DE1B4380B584B000AF786080
:101D80000023FB600023BB607B681B689B6803F03B
:101D90000103012B40D07B681B689A687B681B6835
:101DA00042F001029A601F4B1B681F4AA2FB0323EB
:101DB0009B0CBB6002E0BB68013BBB60BB68002BB7
:101DC000F9D1FFF773FCF8601FE0FFF76FFC0246E4
:101DD000FB68D31A022B18D97B681B689B6803F039
:101DE0000103012B11D07B689B6A43F010027B68D2
:101DF0009A627B68DB6A43F001027B68DA627B6887
:101E0000002283F82420012307E07B681B689B687D
:101E100003F00103012BD8D1002318461037BD462B
:101E200080BD00BF1400002083DE1B4380B584B05A
:101E300000AF78600023FB607B681B689B6803F041
:101E40000103012B2ED17B681B689A687B681B6895
:101E500022F001029A60FFF729FCF8601BE0FFF70F
:101E600025FC0246FB68D31A022B14D97B681B6839
:101E70009B6803F00103012B0DD17B689B6A43F043
:101E800010027B689A627B68DB6A43F001027B6820
:101E9000DA62012307E07B681B689B6803F001039B
:101EA000012BDCD0002318461037BD4680BD80B41E
:101EB00083B000AF786000BF0C37BD4680BC704770
:101EC00080B485B000AF78607B6803F00703FB60E7
:101ED0000C4BDB68BB60BA684FF6FF031340BB6076
:101EE000FB681A02BB68134343F0BF6343F400333B
:101EF000BB60044ABB68D36000BF1437BD4680BCDA
:101F0000704700BF00ED00E080B400AF044BDB6819
:101F10001B0A03F007031846BD4680BC704700BF8C
:101F200000ED00E080B483B000AF0346FB7197F989
:101F30000730002B0BDBFB7903F01F02064997F9F2
:101F400007305B09012000FA02F241F8232000BFAC
:101F50000C37BD4680BC704700E100E080B483B020
:101F600000AF03463960FB7197F90730002B0ADB9D
:101F70003B68DAB20C4997F907301201D2B20B4430
:101F800083F800230AE03B68DAB20849FB7903F0E2
:101F90000F03043B1201D2B20B441A7600BF0C3778
:101FA000BD4680BC704700BF00E100E000ED00E0EE
:101FB00080B489B000AFF860B9607A60FB6803F064
:101FC0000703FB61FB69C3F10703042B28BF04234C
:101FD000BB61FB690433062B02D9FB69033B00E0BC
:101FE00000237B614FF0FF32BB6902FA03F3DA434F
:101FF000BB681A407B699A404FF0FF317B6901FA58
:1020000003F3D9437B680B40134318462437BD467E
:1020100080BC704780B582B000AF78607B68013BC0
:10202000B3F1807F01D301230FE00A4A7B68013BB3
:1020300053600F214FF0FF30FFF790FF054B002258
:102040009A60044B07221A60002318460837BD46E1
:1020500080BD00BF10E000E080B582B000AF7860C6
:102060007868FFF72DFF00BF0837BD4680BD80B5FB
:1020700086B000AF0346B9607A60FB7300237B61D2
:10208000FFF742FF78617A68B9687869FFF790FFD7
:10209000024697F90F3011461846FFF75FFF00BF61
:1020A0001837BD4680BD80B582B000AF0346FB71D6
:1020B00097F907301846FFF735FF00BF0837BD46D0
:1020C00080BD80B582B000AF78607868FFF7A2FF6E
:1020D000034618460837BD4680BD80B485B000AFC2
:1020E00078600023FB737B6893F82130DBB2022B0E
:1020F00008D07B6804229A637B68002283F8202042
:10210000012320E07B681B681A687B681B6822F04B
:102110000E021A607B681B681A687B681B6822F0D5
:1021200001021A607B681A6C7B68DB6B012101FA83
:1021300002F25A607B68012283F821207B6800222A
:1021400083F82020FB7B18461437BD4680BC7047BF
:1021500080B584B000AF78600023FB737B6893F890
:102160002130DBB2022B05D07B6804229A63012365
:10217000FB7351E07B681B681A687B681B6822F060
:102180000E021A607B681B681A687B681B6822F065
:1021900001021A607B681B68224A934229D07B683F
:1021A0001B68214A934222D07B681B681F4A9342D6
:1021B0001AD07B681B681E4A934212D07B681B684A
:1021C0001C4A93420AD07B681B681B4A934202D187
:1021D0004FF480130EE04FF080730BE04FF4803328
:1021E00008E04FF4805305E04FF4807302E01023C1
:1021F00000E00123114A53607B68012283F821200B
:102200007B68002283F820207B685B6B002B03D067
:102210007B685B6B78689847FB7B18461037BD4638
:1022200080BD00BF080002401C0002403000024098
:1022300044000240580002406C000240000002408E
:1022400080B48BB000AF7860396000237B620023DC
:102250003B6261E101227B6A02FA03F3FB613B68A6
:102260001B68FA691340BB61BA69FB699A4240F086
:1022700050813B685B68974A93425ED0954A93428F
:1022800075D8954A934258D0934A93426FD8934A4F
:10229000934252D0914A934269D8914A93424CD08A
:1022A0008F4A934263D88F4A934246D08D4A9342D5
:1022B0005DD8122B2AD8122B59D801A252F823F03C
:1022C0003B23000815230008272300086923000882
:1022D0006F2300086F2300086F2300086F23000896
:1022E0006F2300086F2300086F2300086F23000886
:1022F0006F2300086F2300086F2300086F23000876
:102300006F2300081D23000831230008764A9342FA
:1023100013D02CE03B68DB683B6229E03B68DB685C
:1023200004333B6224E03B68DB6808333B621FE018
:102330003B68DB680C333B621AE03B689B68002B10
:1023400002D104233B6213E03B689B68012B05D15B
:1023500008233B627B68FA691A6109E008233B6243
:102360007B68FA695A6103E000233B6200E000BF2A
:10237000BB69FF2B01D87B6801E07B6804337B617C
:10238000BB69FF2B02D87B6A9B0002E07B6A083B9B
:102390009B003B617B691A680F213B6901FA03F3DB
:1023A000DB431A40396A3B6901FA03F31A437B693C
:1023B0001A603B685B6803F08053002B00F0A98033
:1023C0004A4B9B69494A43F001039361474B9B6920
:1023D00003F00103BB60BB68454A7B6A9B0802337C
:1023E00052F82330FB607B6A03F003039B000F224B
:1023F00002FA03F3DB43FA681340FB607B683D4A53
:1024000093420DD07B683C4A934207D07B683B4A9D
:10241000934201D1022304E0032302E0012300E000
:1024200000237A6A02F0030292009340FA68134391
:10243000FB602F497B6A9B080233FA6841F823202E
:102440003B685B6803F48013002B06D02C4B9A6822
:102450002B49BB6913438B6006E0294B9A68BB6923
:10246000DB43274913408B603B685B6803F4001330
:10247000002B06D0224BDA682149BB691343CB609D
:1024800006E01F4BDA68BB69DB431D491340CB6094
:102490003B685B6803F40033002B06D0184B5A6886
:1024A0001749BB6913434B6006E0154B5A68BB697B
:1024B000DB43134913404B603B685B6803F4803394
:1024C000002B1FD00E4B1A680D49BB6913430B60DC
:1024D0001FE000BF00003210000031100000221089
:1024E0000000211000001210000011100010024026
:1024F0000000014000080140000C014000100140B4
:10250000000401400B4B1A68BB69DB4309491340C7
:102510000B607B6A01337B623B681A687B6A22FA34
:1025200003F3002B7FF496AE00BF00BF2C37BD46EF
:1025300080BC70470004014080B483B000AF786075
:102540000B467B8013467B707B78002B03D07A8808
:102550007B681A6103E07B881A047B681A6100BFFC
:102560000C37BD4680BC704780B485B000AF786042
:102570000B467B807B68DB68FB607A88FB681340D6
:102580001A04FB68D9437B880B401A437B681A61A5
:1025900000BF1437BD4680BC7047000080B586B0D0
:1025A00000AF78607B68002B01D1012372E27B6869
:1025B0001B6803F00103002B00F08780924B5B68DF
:1025C00003F00C03042B0CD08F4B5B6803F00C035F
:1025D000082B12D18C4B5B6803F48033B3F5803F3A
:1025E0000BD1894B1B6803F40033002B6CD07B6844
:1025F0005B68002B68D101234CE27B685B68B3F514
:10260000803F06D1804B1B687F4A43F480331360C0
:102610002EE07B685B68002B0CD17B4B1B687A4AF1
:1026200023F480331360784B1B68774A23F48023AC
:1026300013601DE07B685B68B3F5A02F0CD1724B73
:102640001B68714A43F4802313606F4B1B686E4A0A
:1026500043F4803313600BE06B4B1B686A4A23F42E
:1026600080331360684B1B68674A23F48023136030
:102670007B685B68002B13D0FFF718F8386108E01F
:10268000FFF714F802463B69D31A642B01D90323E0
:1026900000E25D4B1B6803F40033002BF0D014E024
:1026A000FFF704F8386108E0FFF700F802463B69DD
:1026B000D31A642B01D90323ECE1534B1B6803F4B9
:1026C0000033002BF0D100E000BF7B681B6803F0F3
:1026D0000203002B63D04C4B5B6803F00C03002B10
:1026E0000BD0494B5B6803F00C03082B1CD1464B05
:1026F0005B6803F48033002B16D1434B1B6803F057
:102700000203002B05D07B681B69012B01D001233C
:10271000C0E13D4B1B6823F0F8027B685B69DB007E
:10272000394913430B603AE07B681B69002B20D0CA
:10273000364B01221A60FEF7B9FF386108E0FEF758
:10274000B5FF02463B69D31A022B01D90323A1E14D
:102750002D4B1B6803F00203002BF0D02A4B1B68A3
:1027600023F0F8027B685B69DB00274913430B60A9
:1027700015E0264B00221A60FEF798FF386108E04A
:10278000FEF794FF02463B69D31A022B01D90323BB
:1027900080E11D4B1B6803F00203002BF0D17B6826
:1027A0001B6803F00803002B3AD07B689B69002B61
:1027B00019D0174B01221A60FEF778FF386108E044
:1027C000FEF774FF02463B69D31A022B01D903239B
:1027D00060E10D4B5B6A03F00203002BF0D0012097
:1027E00000F0CEFA1CE00A4B00221A60FEF75EFFF2
:1027F00038610FE0FEF75AFF02463B69D31A022BFD
:1028000008D9032346E100BF001002400000424205
:1028100080044242924B5B6A03F00203002BE9D131
:102820007B681B6803F00403002B00F0A6800023E4
:10283000FB758B4BDB6903F08053002B0DD1884B6C
:10284000DB69874A43F08053D361854BDB6903F032
:102850008053BB60BB680123FB75824B1B6803F48C
:102860008073002B18D17F4B1B687E4A43F4807322
:102870001360FEF71BFF386108E0FEF717FF024602
:102880003B69D31A642B01D9032303E1754B1B6801
:1028900003F48073002BF0D07B68DB68012B06D13A
:1028A0006F4B1B6A6E4A43F0010313622DE07B6895
:1028B000DB68002B0CD16A4B1B6A694A23F00103C9
:1028C0001362674B1B6A664A23F0040313621CE021
:1028D0007B68DB68052B0CD1614B1B6A604A43F0B7
:1028E000040313625E4B1B6A5D4A43F001031362EB
:1028F0000BE05B4B1B6A5A4A23F001031362584BEF
:102900001B6A574A23F0040313627B68DB68002BC1
:1029100015D0FEF7CBFE38610AE0FEF7C7FE02468F
:102920003B69D31A41F28832934201D90323B1E0C3
:102930004B4B1B6A03F00203002BEED014E0FEF7B2
:10294000B5FE38610AE0FEF7B1FE02463B69D31AD4
:1029500041F28832934201D903239BE0404B1B6A2A
:1029600003F00203002BEED1FB7D012B05D13C4B84
:10297000DB693B4A23F08053D3617B68DB69002B22
:1029800000F08780364B5B6803F00C03082B61D0A6
:102990007B68DB69022B46D1334B00221A60FEF7BD
:1029A00085FE386108E0FEF781FE02463B69D31AD6
:1029B000022B01D903236DE0294B1B6803F0007340
:1029C000002BF0D17B681B6AB3F5803F08D1244B04
:1029D0005B6823F400327B689B68214913434B609A
:1029E0001F4B5B6823F474127B68196A7B685B6A0F
:1029F0000B431B4913434B601B4B01221A60FEF72C
:102A000055FE386108E0FEF751FE02463B69D31AD5
:102A1000022B01D903233DE0114B1B6803F0007327
:102A2000002BF0D035E0104B00221A60FEF73EFE7E
:102A3000386108E0FEF73AFE02463B69D31A022BE2
:102A400001D9032326E0064B1B6803F00073002B1B
:102A5000F0D11EE07B68DB69012B07D1012319E06F
:102A60000010024000700040600042420B4B5B6867
:102A7000FB60FB6803F480327B681B6A9A4206D1D4
:102A8000FB6803F470127B685B6A9A4201D00123F1
:102A900000E0002318461837BD4680BD00100240F4
:102AA00080B584B000AF786039607B68002B01D1BD
:102AB0000123D0E06A4B1B6803F007033A689A428F
:102AC00010D9674B1B6823F0070265493B68134325
:102AD0000B60634B1B6803F007033A689A4201D00E
:102AE0000123B8E07B681B6803F00203002B20D0B1
:102AF0007B681B6803F00403002B05D0594B5B680F
:102B0000584A43F4E06353607B681B6803F0080392
:102B1000002B05D0534B5B68524A43F4605353601B
:102B2000504B5B6823F0F0027B689B684D49134370
:102B30004B607B681B6803F00103002B40D07B686F
:102B40005B68012B07D1474B1B6803F40033002B54
:102B500015D101237FE07B685B68022B07D1414BD5
:102B60001B6803F00073002B09D1012373E03D4B78
:102B70001B6803F00203002B01D101236BE0394BEA
:102B80005B6823F003027B685B68364913434B6044
:102B9000FEF78CFDF8600AE0FEF788FD0246FB6850
:102BA000D31A41F28832934201D9032353E02D4BCB
:102BB0005B6803F00C027B685B689B009A42EBD178
:102BC000274B1B6803F007033A689A4210D2244B44
:102BD0001B6823F0070222493B6813430B60204B1C
:102BE0001B6803F007033A689A4201D0012332E0E0
:102BF0007B681B6803F00403002B08D0194B5B684B
:102C000023F4E0627B68DB68164913434B607B6802
:102C10001B6803F00803002B09D0124B5B6823F4F8
:102C200060527B681B69DB000E4913434B6000F068
:102C300021F802460B4B5B681B0903F00F030A499E
:102C4000CB5C22FA03F3094A1360094B1B68184650
:102C5000FEF7EAFC002318461037BD4680BD00BFD2
:102C600000200240001002402072000814000020E2
:102C70001800002080B487B000AF0023FB60002361
:102C8000BB6000237B6100237B6000233B611E4B04
:102C90005B68FB60FB6803F00C03042B02D0082B7D
:102CA00003D027E0194B3B6127E0FB689B0C03F046
:102CB0000F03174AD35C7B60FB6803F48033002B5F
:102CC00010D0114B5B685B0C03F00103114AD35C1D
:102CD000BB607B680D4A03FB02F2BB68B2FBF3F3F7
:102CE0007B6104E07B680C4A02FB03F37B617B6938
:102CF0003B6102E0054B3B6100BF3B6918461C3756
:102D0000BD4680BC704700BF0010024000127A0030
:102D1000387200084872000800093D0080B400AF16
:102D2000024B1B681846BD4680BC7047140000204B
:102D300080B500AFFFF7F2FF0246054B5B681B0A48
:102D400003F007030349CB5C22FA03F3184680BD66
:102D5000001002403072000880B500AFFFF7DEFFC0
:102D60000246054B5B68DB0A03F007030349CB5CB3
:102D700022FA03F3184680BD0010024030720008AA
:102D800080B485B000AF78600A4B1B680A4AA2FB8A
:102D900003235B0A7A6802FB03F3FB6000BFFB6856
:102DA0005A1EFA60002BF9D100BF00BF1437BD4690
:102DB00080BC704714000020D34D621080B586B0EF
:102DC00000AF786000233B610023FB607B681B68D9
:102DD00003F00103002B7DD00023FB754F4BDB6913
:102DE00003F08053002B0DD14C4BDB694B4A43F071
:102DF0008053D361494BDB6903F08053BB60BB68F0
:102E00000123FB75464B1B6803F48073002B18D11C
:102E1000434B1B68424A43F480731360FEF746FC41
:102E2000386108E0FEF742FC02463B69D31A642B86
:102E300001D903236DE03A4B1B6803F48073002B28
:102E4000F0D0364B1B6A03F44073FB60FB68002B29
:102E50002ED07B685B6803F44073FA689A4227D0EF
:102E60002E4B1B6A23F44073FB602E4B01221A6029
:102E70002C4B00221A60294AFB681362FB6803F09E
:102E80000103002B14D0FEF711FC38610AE0FEF7B5
:102E90000DFC02463B69D31A41F28832934201D9B4
:102EA000032336E01D4B1B6A03F00203002BEED018
:102EB0001A4B1B6A23F440727B685B681749134303
:102EC0000B62FB7D012B05D1144BDB69134A23F008
:102ED0008053D3617B681B6803F00203002B08D08A
:102EE0000E4B5B6823F440427B689B680B4913439D
:102EF0004B607B681B6803F01003002B08D0074B66
:102F00005B6823F480027B68DB68044913434B60F1
:102F1000002318461837BD4680BD00BF0010024090
:102F2000007000404004424280B582B000AF78603B
:102F30007B68002B01D1012341E07B6893F83D3091
:102F4000DBB2002B06D17B68002283F83C20786836
:102F5000FEF7B4F87B68022283F83D207B681A688C
:102F60007B6804331946104600F06EFA7B68012234
:102F700083F846207B68012283F83E207B6801228B
:102F800083F83F207B68012283F840207B68012280
:102F900083F841207B68012283F842207B6801226C
:102FA00083F843207B68012283F844207B68012258
:102FB00083F845207B68012283F83D2000231846D2
:102FC0000837BD4680BD000080B485B000AF786092
:102FD0007B6893F83D30DBB2012B01D0012335E053
:102FE0007B68022283F83D207B681B68DA687B6877
:102FF0001B6842F00102DA607B681B68164A934244
:1030000009D07B681B68B3F1804F04D07B681B68D4
:10301000124A934211D17B681B689B6803F0070337
:10302000FB60FB68062B10D07B681B681A687B6806
:103030001B6842F001021A6007E07B681B681A688F
:103040007B681B6842F001021A600023184614379F
:10305000BD4680BC704700BF002C0140000400400A
:1030600080B582B000AF78607B681B681B6903F095
:103070000203022B22D17B681B68DB6803F002038A
:10308000022B1BD17B681B686FF002021A617B6800
:1030900001221A777B681B689B6903F00303002BEE
:1030A00003D0786800F0B4F905E0786800F0A7F97B
:1030B000786800F0B6F97B6800221A777B681B6895
:1030C0001B6903F00403042B22D17B681B68DB68B7
:1030D00003F00403042B1BD17B681B686FF0040210
:1030E0001A617B6802221A777B681B689B6903F46C
:1030F0004073002B03D0786800F08AF905E0786807
:1031000000F07DF9786800F08CF97B6800221A776E
:103110007B681B681B6903F00803082B22D17B68BE
:103120001B68DB6803F00803082B1BD17B681B6856
:103130006FF008021A617B6804221A777B681B68AB
:10314000DB6903F00303002B03D0786800F060F91B
:1031500005E0786800F053F9786800F062F97B6860
:1031600000221A777B681B681B6903F01003102B81
:1031700022D17B681B68DB6803F01003102B1BD186
:103180007B681B686FF010021A617B6808221A774F
:103190007B681B68DB6903F44073002B03D07868FD
:1031A00000F036F905E0786800F029F9786800F059
:1031B00038F97B6800221A777B681B681B6903F06B
:1031C0000103012B0ED17B681B68DB6803F0010350
:1031D000012B07D17B681B686FF001021A617868C8
:1031E000FEF734F97B681B681B6903F08003802BB2
:1031F0000ED17B681B68DB6803F08003802B07D14E
:103200007B681B686FF080021A61786800F06BFAC7
:103210007B681B681B6903F04003402B0ED17B6861
:103220001B68DB6803F04003402B07D17B681B68F9
:103230006FF040021A61786800F0FCF87B681B6848
:103240001B6903F02003202B0ED17B681B68DB6811
:1032500003F02003202B07D17B681B686FF020024E
:103260001A61786800F036FA00BF0837BD4680BDA5
:1032700080B584B000AF786039600023FB737B6851
:1032800093F83C30012B01D10223B4E07B6801228A
:1032900083F83C207B68022283F83D207B681B6812
:1032A0009B68BB60BB6823F07703BB60BB6823F4FB
:1032B0007F43BB607B681B68BA689A603B681B6889
:1032C000B3F5005F3ED0B3F5005F00F28780B3F541
:1032D000805F00F08680B3F5805F7FD8702B1AD0B6
:1032E000702B7BD8602B50D0602B77D8502B3CD0E4
:1032F000502B73D8402B58D0402B6FD8302B64D034
:10330000302B6BD8202B60D0202B67D8002B5CD0C3
:10331000102B5AD062E07B6818683B6899683B685C
:103320005A683B68DB6800F05EF97B681B689B6845
:10333000BB60BB6843F07703BB607B681B68BA68FF
:103340009A604FE07B6818683B6899683B685A68E8
:103350003B68DB6800F047F97B681B689A687B680C
:103360001B6842F480429A603CE07B6818683B68C6
:1033700059683B68DB681A4600F0BEF87B681B683A
:103380005021184600F015F92CE07B6818683B685E
:1033900059683B68DB681A4600F0DCF87B681B68FC
:1033A0006021184600F005F91CE07B6818683B684E
:1033B00059683B68DB681A4600F09EF87B681B681A
:1033C0004021184600F0F5F80CE07B681A683B686D
:1033D0001B681946104600F0ECF803E00123FB736C
:1033E00000E000BF7B68012283F83D207B6800225B
:1033F00083F83C20FB7B18461037BD4680BD80B467
:1034000083B000AF786000BF0C37BD4680BC70470A
:1034100080B483B000AF786000BF0C37BD4680BC7D
:10342000704780B483B000AF786000BF0C37BD46F2
:1034300080BC704780B483B000AF786000BF0C37A9
:10344000BD4680BC7047000080B485B000AF786096
:1034500039607B681B68FB607B68254A934207D014
:103460007B68B3F1804F03D07B68224A934208D136
:10347000FB6823F07003FB603B685B68FA681343EA
:10348000FB607B681A4A934207D07B68B3F1804F98
:1034900003D07B68174A934208D1FB6823F440733A
:1034A000FB603B68DB68FA681343FB60FB6823F052
:1034B00080023B685B691343FB607B68FA681A60B3
:1034C0003B689A687B68DA623B681A687B689A6234
:1034D0007B68074A934203D13B681A697B681A6389
:1034E0007B6801225A6100BF1437BD4680BC70471B
:1034F000002C01400004004080B487B000AFF860A9
:10350000B9607A60FB681B6A7B61FB681B6A23F009
:103510000102FB681A62FB689B693B613B6923F00F
:10352000F0033B617B681B013A6913433B617B6994
:1035300023F00A037B617A69BB6813437B61FB68F4
:103540003A699A61FB687A691A6200BF1C37BD4606
:1035500080BC704780B487B000AFF860B9607A6013
:10356000FB681B6A7B61FB681B6A23F01002FB6827
:103570001A62FB689B693B613B6923F470433B61C2
:103580007B681B033A6913433B617B6923F0A0030B
:103590007B61BB681B017A6913437B61FB683A69F5
:1035A0009A61FB687A691A6200BF1C37BD4680BC0D
:1035B000704780B485B000AF786039607B689B68E5
:1035C000FB60FB6823F07003FB603A68FB68134301
:1035D00043F00703FB607B68FA689A6000BF14370A
:1035E000BD4680BC704780B487B000AFF860B9605A
:1035F0007A603B60FB689B687B617B6923F47F4357
:103600007B613B681A027B681A43BB6813437A6983
:1036100013437B61FB687A699A6000BF1C37BD4623
:1036200080BC704780B485B000AF786039607B683B
:1036300093F83C30012B01D1022341E07B68012249
:1036400083F83C207B68022283F83D207B681B685E
:103650005B68FB607B681B689B68BB60FB6823F052
:103660007003FB603B681B68FA681343FB607B6870
:103670001B68FA685A607B681B68144A934209D039
:103680007B681B68B3F1804F04D07B681B68104ACD
:1036900093420CD1BB6823F08003BB603B685B683E
:1036A000BA681343BB607B681B68BA689A607B6822
:1036B000012283F83D207B68002283F83C20002310
:1036C00018461437BD4680BC704700BF002C01402F
:1036D0000004004080B483B000AF786000BF0C37B6
:1036E000BD4680BC704780B483B000AF786000BF37
:1036F0000C37BD4680BC704780B582B000AF7860A3
:103700007B68002B01D1012342E07B6893F84130B4
:10371000DBB2002B06D17B68002283F8402078685A
:10372000FDF7F0FC7B68242283F841207B681B684E
:10373000DA687B681B6822F40052DA60786800F06F
:10374000C5FD7B681B681A697B681B6822F4904280
:103750001A617B681B685A697B681B6822F02A0221
:103760005A617B681B68DA687B681B6842F4005208
:10377000DA607B6800225A647B68202283F841204B
:103780007B68202283F842207B6800225A63002352
:1037900018460837BD4680BD80B58AB002AFF860D4
:1037A000B9603B601346FB8000237B61FB6893F8A4
:1037B0004130DBB2202B6DD1BB68002B02D0FB88DF
:1037C000002B01D1012366E0FB6800225A64FB68EC
:1037D000212283F84120FDF769FF7861FB68FA88B0
:1037E0009A84FB68FA88DA84FB689B68B3F5805F8B
:1037F00008D1FB681B69002B04D10023FB61BB6867
:10380000BB6103E0BB68FB610023BB612AE03B684E
:1038100000937B6900228021F86800F014FB0346C6
:10382000002B01D0032336E0FB69002B0BD1BB69D1
:103830001B881A46FB681B68C2F308025A60BB6902
:103840000233BB6107E0FB691A78FB681B685A60AA
:10385000FB690133FB61FB68DB8C9BB2013B9AB2D5
:10386000FB68DA84FB68DB8C9BB2002BCFD13B6812
:1038700000937B6900224021F86800F0E4FA0346D7
:10388000002B01D0032306E0FB68202283F84120AF
:10389000002300E0022318462037BD4680BD80B5D6
:1038A00084B000AFF860B9601346FB80FB6893F802
:1038B0004230DBB2202B12D1BB68002B02D0FB8838
:1038C000002B01D101230BE0FB6800221A63FB8867
:1038D0001A46B968F86800F024FB034600E00223AA
:1038E00018461037BD4680BD80B5BAB000AF7860CD
:1038F0007B681B681B68C7F8E4307B681B68DB6863
:10390000C7F8E0307B681B685B69C7F8DC300023D0
:10391000C7F8D8300023C7F8D430D7F8E43003F024
:103920000F03C7F8D830D7F8D830002B0FD1D7F80D
:10393000E43003F02003002B09D0D7F8E03003F087
:103940002003002B03D0786800F001FC5BE2D7F87D
:10395000D830002B00F0DE80D7F8DC3003F0010314
:10396000002B06D1D7F8E03003F49073002B00F061
:10397000D180D7F8E43003F00103002B0BD0D7F847
:10398000E03003F48073002B05D07B685B6C43F060
:1039900001027B685A64D7F8E43003F00403002B7B
:1039A0000BD0D7F8DC3003F00103002B05D07B6887
:1039B0005B6C43F002027B685A64D7F8E43003F092
:1039C0000203002B0BD0D7F8DC3003F00103002BEF
:1039D00005D07B685B6C43F004027B685A64D7F8BF
:1039E000E43003F00803002B11D0D7F8E03003F0E7
:1039F0002003002B05D1D7F8DC3003F00103002BA6
:103A000005D07B685B6C43F008027B685A647B6876
:103A10005B6C002B00F0F281D7F8E43003F0200358
:103A2000002B08D0D7F8E03003F02003002B02D0A1
:103A3000786800F08CFB7B681B685B6903F04003CF
:103A4000002B14BF01230023DBB2C7F8D4307B68FE
:103A50005B6C03F00803002B03D1D7F8D430002BA4
:103A60004FD0786800F096FA7B681B685B6903F0BA
:103A70004003002B41D07B681B681433C7F89C308F
:103A8000D7F89C3053E8003FC7F89830D7F8983003
:103A900023F04003C7F8D0307B681B681433D7F895
:103AA000D020C7F8A820C7F8A430D7F8A410D7F8BA
:103AB000A82041E80023C7F8A030D7F8A030002B99
:103AC000D9D17B68DB6B002B13D07B68DB6B7E4A24
:103AD0005A637B68DB6B1846FEF73AFB0346002B04
:103AE00016D07B68DB6B5B6B7A68D26B10469847AD
:103AF0000EE0786800F093F90AE0786800F08FF93A
:103B000006E0786800F08BF97B6800225A6475E162
:103B100000BF73E17B681B6B012B40F04F81D7F82E
:103B2000E43003F01003002B00F04881D7F8E030B8
:103B300003F01003002B00F041810023BB607B6881
:103B40001B681B68BB607B681B685B68BB60BB68ED
:103B50007B681B685B6903F04003002B00F0B680B4
:103B60007B68DB6B1B685B68A7F8BE30B7F8BE30BC
:103B7000002B00F045817B689B8DB7F8BE209A42F0
:103B800080F03E817B68B7F8BE20DA857B68DB6B0E
:103B90009B69202B00F088807B681B680C33C7F87A
:103BA0008830D7F8883053E8003FC7F88430D7F81A
:103BB000843023F48073C7F8B8307B681B680C33FB
:103BC000D7F8B820C7F89420C7F89030D7F89010ED
:103BD000D7F8942041E80023C7F88C30D7F88C3010
:103BE000002BD9D17B681B6814337B677B6F53E84C
:103BF000003F3B673B6F23F00103C7F8B4307B689D
:103C00001B681433D7F8B420C7F88020FB67F96F1E
:103C1000D7F8802041E80023BB67BB6F002BE1D1C0
:103C20007B681B6814333B663B6E53E8003FFB65C3
:103C3000FB6D23F04003C7F8B0307B681B6814337A
:103C4000D7F8B020FA66BB66B96EFA6E41E8002379
:103C50007B667B6E002BE3D17B68202283F84220B9
:103C60007B6800221A637B681B680C33FB64FB6C67
:103C700053E8003FBB64BB6C23F01003C7F8AC30C3
:103C80007B681B680C33D7F8AC20BA657B65796D0F
:103C9000BA6D41E800233B653B6D002BE3D17B68A7
:103CA000DB6B1846FEF719FA7B6802225A637B68C1
:103CB0009A8D7B68DB8D9BB2D31A9BB219467868CC
:103CC00000F0B6F89CE000BF594000087B689A8D70
:103CD0007B68DB8D9BB2D31AA7F8CE307B68DB8D77
:103CE0009BB2002B00F08E80B7F8CE30002B00F096
:103CF00089807B681B680C33BB63BB6B53E8003F58
:103D00007B637B6B23F49073C7F8C8307B681B68B8
:103D10000C33D7F8C8207A643B64396C7A6C41E87C
:103D20000023FB63FB6B002BE3D17B681B68143320
:103D30007B627B6A53E8003F3B623B6A23F00103EE
:103D4000C7F8C4307B681B681433D7F8C4203A63C3
:103D5000FB62F96A3A6B41E80023BB62BB6A002B45
:103D6000E3D17B68202283F842207B6800221A631B
:103D70007B681B680C333B613B6953E8003FFB6089
:103D8000FB6823F01003C7F8C0307B681B680C3356
:103D9000D7F8C020FA61BB61B969FA6941E800232C
:103DA0007B617B69002BE3D17B6802225A63B7F801
:103DB000CE301946786800F03BF823E0D7F8E430BD
:103DC00003F08003002B09D0D7F8E03003F0800324
:103DD000002B03D0786800F053F914E0D7F8E430F2
:103DE00003F04003002B0ED0D7F8E03003F040037F
:103DF000002B08D0786800F092F904E000BF02E0E0
:103E000000BF00E000BFE837BD4680BD80B483B08E
:103E100000AF786000BF0C37BD4680BC704780B4EF
:103E200083B000AF786000BF0C37BD4680BC7047E0
:103E300080B483B000AF78600B467B8000BF0C3746
:103E4000BD4680BC704780B590B000AFF860B960E7
:103E50003B601346FB7150E0BB6CB3F1FF3F4CD0AD
:103E6000BB6C002B07D0FDF721FC02463B68D31A40
:103E7000BA6C9A4241D2FB681B680C33BB62BB6AC6
:103E800053E8003F7B627B6A23F4D073FB63FB68DB
:103E90001B680C33FA6B7A633B63396B7A6B41E8CE
:103EA0000023FB62FB6A002BE5D1FB681B6814331F
:103EB0007B617B6953E8003F3B613B6923F0010371
:103EC000BB63FB681B681433BA6B3A62FB61F96928
:103ED0003A6A41E80023BB61BB69002BE5D1FB686E
:103EE000202283F84120FB68202283F84220FB68CF
:103EF000002283F8402003230FE0FB681B681A6848
:103F0000BB681340BA689A420CBF01230023DBB29E
:103F10001A46FB799A429FD0002318464037BD4687
:103F200080BD80B485B000AFF860B9601346FB80F7
:103F3000FB68BA689A62FB68FA889A85FB68FA8817
:103F4000DA85FB6800225A64FB68222283F842204B
:103F5000FB681B69002B07D0FB681B68DA68FB68ED
:103F60001B6842F48072DA60FB681B685A69FB6860
:103F70001B6842F001025A61FB681B68DA68FB6843
:103F80001B6842F02002DA60002318461437BD4651
:103F900080BC704780B495B000AF78607B681B68C8
:103FA0000C337B637B6B53E8003F3B633B6B23F439
:103FB0009073FB647B681B680C33FA6C3A64FB6398
:103FC000F96B3A6C41E80023BB63BB6B002BE5D176
:103FD0007B681B6814333B623B6A53E8003FFB611C
:103FE000FB6923F00103BB647B681B681433BA6C64
:103FF000FA62BB62B96AFA6A41E800237B627B6AB3
:10400000002BE5D17B681B6B012B19D17B681B68EA
:104010000C33FB60FB6853E8003FBB60BB6823F0D8
:1040200010037B647B681B680C337A6CBA617B611C
:104030007969BA6941E800233B613B69002BE5D10E
:104040007B68202283F842207B6800221A6300BF2D
:104050005437BD4680BC704780B584B000AF7860EF
:104060007B685B6AFB60FB680022DA85FB680022E4
:10407000DA84F868FFF7D3FE00BF1037BD4680BD75
:1040800080B485B000AF78607B6893F84130DBB2D4
:10409000212B3ED17B689B68B3F5805F14D17B6890
:1040A0001B69002B10D17B681B6AFB60FB681B88B7
:1040B0001A467B681B68C2F308025A607B681B6A59
:1040C0009A1C7B681A6208E07B681B6A591C7A6834
:1040D00011621A787B681B685A607B68DB8C9BB224
:1040E000013B9BB27A681946D184002B0FD17B68C3
:1040F0001B68DA687B681B6822F08002DA607B68E4
:104100001B68DA687B681B6842F04002DA600023B3
:1041100000E0022318461437BD4680BC704780B5C6
:1041200082B000AF78607B681B68DA687B681B68C8
:1041300022F04002DA607B68202283F84120786810
:10414000FFF764FE002318460837BD4680BD80B5E2
:104150008CB000AF78607B6893F84230DBB2222BE2
:1041600040F0AE807B689B68B3F5805F17D17B68B9
:104170001B69002B13D10023FB627B689B6ABB6227
:104180007B681B685B689BB2C3F308039AB2BB6A87
:104190001A807B689B6A9A1C7B689A6226E07B681F
:1041A0009B6AFB620023BB627B689B68B3F5805F00
:1041B00007D07B689B68002B0AD17B681B69002BAA
:1041C00006D17B681B685B68DAB2FB6A1A7008E08C
:1041D0007B681B685B68DBB203F07F03DAB2FB6AC3
:1041E0001A707B689B6A5A1C7B689A627B68DB8DBD
:1041F0009BB2013B9BB27A681946D185002B5DD1F9
:104200007B681B68DA687B681B6822F02002DA6032
:104210007B681B68DA687B681B6822F48072DA604E
:104220007B681B685A697B681B6822F001025A612F
:104230007B68202283F842207B6800225A637B68D7
:104240001B6B012B35D17B6800221A637B681B68CE
:104250000C337B617B6953E8003F3B613B6923F092
:1042600010037B627B681B680C337A6A3A62FB61DD
:10427000F9693A6A41E80023BB61BB69002BE5D1CB
:104280007B681B681B6803F01003102B0AD1002306
:10429000FB607B681B681B68FB607B681B685B6856
:1042A000FB60FB687B689B8D19467868FFF7C0FD53
:1042B00002E07868FDF740F9002302E0002300E007
:1042C000022318463037BD4680BD000080B584B05B
:1042D00000AF78607B681B681B6923F440517B68E2
:1042E000DA687B681B680A431A617B689A687B6896
:1042F0001B691A437B685B691343BB607B681B685F
:10430000DB6823F4B05323F00C037A681268B968B1
:104310000B43D3607B681B685B6923F440717B6847
:104320009A697B681B680A435A617B681B682C4A40
:10433000934203D1FEF710FDF86002E0FEF7F8FCAF
:10434000F860FA6813469B0013449A001A447B688D
:104350005B689B00B2FBF3F3224AA2FB03235B09D9
:104360001901FA6813469B0013449A001A447B68AB
:104370005B689B00B2FBF3F21A4BA3FB02035B09E1
:10438000642000FB03F3D31A1B013233154AA2FB4E
:1043900003235B0903F0F0031944FA6813469B00FA
:1043A00013449A001A447B685B689B00B2FBF3F2EB
:1043B0000C4BA3FB02035B09642000FB03F3D31A3D
:1043C0001B013233074AA2FB03235B0903F00F02F0
:1043D0007B681B680A449A6000BF1037BD4680BDE9
:1043E000003801401F85EB51014B1868704700BF32
:1043F0002000002070B500260C4D0D4C641BA4104D
:10440000A64209D102F0FCFE00260A4D0A4C641BAC
:10441000A410A64205D170BD55F8043B984701365B
:10442000EEE755F8043B98470136F2E7247600089A
:104430002476000824760008287600080346024403
:10444000934200D1704703F8011BF9E7002B2DE9D7
:10445000F0471F46BBBF03F100431F4600232D2337
:1044600088B01446129A109D1370149BDDF84CA06E
:1044700023F02008B8F1460F05D0B8F1450F00D160
:104480000135022300E0032307AA049206AACDE91E
:1044900002A2CDE9003522463B4600F0E5FCB8F12A
:1044A000470F064602D1119BDB0722D5B8F1460F14
:1044B00006EB050910D13378302B0AD100220023F6
:1044C00020463946FCF770FA18B9C5F10105CAF85B
:1044D0000050DAF800309944002200232046394683
:1044E000FCF762FA08B1CDF81C903022079B4B45CF
:1044F00007D33046079B159A9B1B136008B0BDE895
:10450000F087591C07911A70F0E70346F7B50029A8
:1045100003F8022BB6BF2D222B22494209294270F3
:104520002BDD0DF10704A4460A2791FBF7F60A4696
:10453000A64607FB1615632A05F13005314604F13E
:10454000FF340EF8015CF0DC3031AEF1020504F806
:10455000011C2946441C61450AD30DF10902A2EB56
:104560000E02654588BF00221344181A03B0F0BD3F
:1045700011F8012B04F8012FEDE73023303183705F
:10458000C170031DF1E700002DE9F04F91B00C461A
:10459000DDF8688016461F46054601F053FA0368A9
:1045A00018460993FBF7D4FD00230E93D8F800308A
:1045B0000A90073323F0070303F1080294F81890D8
:1045C000D4F800B0C8F80020D3E90023C4E91223CE
:1045D000D4E9128A2AF000430B934FF0FF32404691
:1045E0009C4B0B99FCF712FA70BB4FF0FF32404620
:1045F000984B0B99FCF7ECF930BB002200234046A6
:104600005146FCF7DBF910B12D2384F84330924B6F
:104610009248B9F1470F94BF9846804603234FF064
:10462000000A23612BF00403236033462146284609
:1046300000970FAA00F0D4F9013040F090804FF0BD
:10464000FF3011B0BDE8F08F424653464046514618
:10465000FCF7DCF948B1BAF1000FB8BF2D23804850
:10466000B8BF84F843307F4BD3E7636809F0DF01BC
:104670005A1C42D106236360002206920EAACDE99D
:1046800004920DAA4BF4806303920DF13302CDE93D
:1046900001322360636842460093284653460B91DB
:1046A000FFF7D4FE0B99804647290D9908D1C81C05
:1046B00002DB6368994240DDA9F102095FFA89F9DA
:1046C000B9F1650F1FD84A46013904F150000D9128
:1046D000FFF71BFF0E9A82461318012A236102DCA2
:1046E0002268D20701D5013323619DF83330002BB6
:1046F0009BD02D2384F8433097E74729BCD1002B6A
:10470000BAD10123B7E7B9F1660F18D10029636860
:104710000BDD216113B92268D00702D501330B44A8
:1047200023614FF0000AA165DFE713B92268D207C1
:1047300001D50233F4E70123F2E74FF067090E9B3E
:10474000994205DB23682161D807EAD54B1CE7E7CE
:104750000029CCBF0122C1F102021344E0E7236823
:104760005A0507D42369424631462846B8470130E6
:104770002BD164E7B9F1650F40F2DD80D4E9120175
:1047800000220023FCF710F9002833D00123314622
:104790002846354AB84701303FF451AFDDE90D23D3
:1047A0009A4202DB2368D8070FD5DDE90923314699
:1047B0002846B84701303FF442AF4FF0000804F1FB
:1047C0001A090E9B013B434509DC23689B0700F156
:1047D0000281E0680F9B9842B8BF184631E7012379
:1047E0004A4631462846B84701303FF428AF08F121
:1047F0000108E6E70D9B002B38DC012331462846F3
:10480000194AB84701303FF41AAFDDE90D231343CD
:1048100002D12368D907D8D5DDE9092331462846D6
:10482000B84701303FF40BAF4FF0000904F11A0A0A
:104830000D9B5B424B4501DC0E9B94E701235246E6
:1048400031462846B84701303FF4F9AE09F1010975
:10485000EEE700BFFFFFEF7F5072000854720008C0
:104860005C72000858720008607200080E9AA36D0E
:104870009A42A8BF1A46002A914637DC4FF0000B37
:1048800029EAE97904F11A02D4F858A0AAEB09033D
:104890005B4533DCDDE90D239A423BDB2368DA0715
:1048A00038D40E9B0D99A3EB0A02A3EB01099145A5
:1048B000A8BF9146B9F1000F34DC4FF0000829EA97
:1048C000E97904F11A0ADDE90D239B1AA3EB090328
:1048D00043457FF77AAF0123524631462846B84711
:1048E00001303FF4ACAE08F10108ECE71346314665
:1048F00042462846B8470130C0D1A0E601233146E0
:1049000028460B92B84701303FF499AE0B9A0BF151
:10491000010BB9E73146DDE909232846B8470130E4
:10492000BFD18CE64B463146284608EB0A02B84711
:104930000130C2D183E60E9A012A01DCDB0737D5AC
:104940000123424631462846B84701303FF477AE4E
:10495000DDE9092331462846B84701303FF46FAE00
:10496000D4E9120100220023FCF71EF8D8B90E9BEF
:1049700008F10102013B31462846B84701300ED10B
:104980005DE601234A4631462846B84701303FF4E8
:1049900056AE08F101080E9B013B4345F1DC53463E
:1049A00004F15002E0E64FF0000804F11A09F2E7C2
:1049B00001234246DFE701234A4631462846B847ED
:1049C00001303FF43CAE08F10108E3680F995B1A2F
:1049D0004345F0DCFDE64FF0000804F11909F4E767
:1049E0002DE9F047164699468A680B6907469342B7
:1049F000B8BF1346336091F843200C46DDF82080A1
:104A00000AB1013333602368990642BF3368023329
:104A10003360256815F0060506D104F1190AE3682C
:104A200032689B1AAB4228DC94F84320131E22689C
:104A300018BF012392062DD44946384604F143029B
:104A4000C047013020D02368E56803F00603042B3B
:104A500018BF002532684FF00006A36808BFAD1AE2
:104A6000226908BF25EAE5759342C4BF9B1AED1879
:104A70001A34B5421AD1002008E0012352464946B3
:104A80003846C047013003D14FF0FF30BDE8F08712
:104A90000135C4E73020E11881F843005A1C94F82E
:104AA00045102244023382F84310C5E70123224611
:104AB00049463846C0470130E6D00136D9E7000004
:104AC0002DE9FF470F7E9146782F80460C469A4687
:104AD0000C9D01F1430207D8622F0AD8002F00F085
:104AE000D980582F00F0A48004F1420584F8427068
:104AF0003AE0A7F16303152BF6D801A151F823F092
:104B0000594B00086D4B0008E94A0008E94A0008C3
:104B1000E94A0008E94A00086D4B0008E94A000824
:104B2000E94A0008E94A0008E94A00087B4C000805
:104B30009D4B00085D4C0008E94A0008E94A00085E
:104B40009D4C0008E94A00089D4B0008E94A00080E
:104B5000E94A0008654C00082B681A1D1B682A608A
:104B600004F1420584F842300123A4E0206829685A
:104B7000060601F104030AD50E682B60002E03DA45
:104B80002D23764284F843300A235E4819E00E68EC
:104B900010F0400F2B6018BF36B2EFE72B6820688B
:104BA000191D2960010601D51E6802E04606FBD5E5
:104BB0001E886F2F0CBF08230A235248002184F857
:104BC00043106568002DA8BF2168A560A4BF21F02F
:104BD000040121600EB9002D4DD01546B6FBF3F14E
:104BE00003FB1167C75D05F8017D3746BB420E46E2
:104BF000F4D9082B0BD12368DE0708D52369616837
:104C00009942DEBF302305F8013C05F1FF35521B08
:104C100022614B4621464046CDF800A003AAFFF78B
:104C2000DFFE01304CD14FF0FF3004B0BDE8F0871B
:104C3000344881F845702968236851F8046B29606D
:104C40001D0614D5DF0744BF43F0200323601EB9BF
:104C5000236823F0200323601023AFE7236843F089
:104C6000200323607823284884F84530E3E7590679
:104C700048BFB6B2E6E71546BBE72B682668181DA5
:104C80006169286035061B6801D5196002E070066D
:104C9000FBD51980002315462361BAE72B68002154
:104CA0001A1D2A601D686268284600F0D7FE08B108
:104CB000401B606063682361002384F84330A8E7E9
:104CC0002A46494640462369D0470130ABD0236885
:104CD0009B0713D4E068039B9842B8BF1846A4E72B
:104CE0000123324649464046D04701309BD001352A
:104CF000E36803995B1AAB42F2DCEBE7002504F1B1
:104D00001906F5E762720008737200080EB46FF0BE
:104D1000004100B59CB01DAB029006900791049134
:104D20000848094953F8042B0591006802A901932A
:104D300001F07EFB0022029B1A701CB05DF804EBB0
:104D400003B07047200000200802FFFF2DE9F74F55
:104D500003690C690746A342C0F28280013C00F15E
:104D6000140501F1140805EB8403019358F824306D
:104D700055F8242001339A42B2FBF3F64FEA840B34
:104D800008EB840931D34FF0000E4046AC46F246A2
:104D900050F8042B93B206FB03E3120C4FEA134EB8
:104DA0009BB206FB02E2AAEB0303DCF800A04FEA89
:104DB000124E1FFA8AFA5344DCF800A092B2C2EBFA
:104DC0001A4202EB23429BB243EA024381454FEA77
:104DD000224A4CF8043BDBD255F80B302BB9019B2F
:104DE000043B9D421A462FD33C61384601F0D0F86F
:104DF000002825DB28464FF0000C013658F8041B2C
:104E0000D0F800E08BB2ACEB03031FFA8EF2134430
:104E10000A0CC2EB1E4202EB23429BB243EA02435E
:104E2000C1454FEA224C40F8043BE7D255F8242014
:104E300005EB840322B9043B9D421A460AD33C6128
:104E4000304603B0BDE8F08F1268043B002ACBD196
:104E5000013CC6E71268043B002AF0D1013CEBE7B5
:104E60000020EEE7000000002DE9F04F16461F4637
:104E7000446A99B00546CDE90467DDF8948074B9B9
:104E8000102000F0E3FD0246686220B9EA21A84B39
:104E9000A84801F0DDFBC0E901440460C4606B6A0E
:104EA000196851B15A68012393404A608B602846C3
:104EB00000F030FE00226B6A1A603B1EAFBF002379
:104EC000012223F000430593A8BFC8F80030DDF8A5
:104ED0001490994BB8BFC8F8002033EA090319D1E0
:104EE00042F20F73249A1360C9F31303334300F0A3
:104EF0007F85269B53B9914B22E0914B0393083356
:104F0000269A1360039819B0BDE8F08F8B4B03937A
:104F10000333F5E7DDE90434CDE90C34DDE90C01B8
:104F200000220023FBF740FD804658B10123249A5C
:104F30001360269B002B00F0588582481860431EA2
:104F40000393DFE716AB019317AB00932846DDE927
:104F50000C2301F0C5F8C9F30A548346002C7FD016
:104F6000DDE90C010D9BA4F2FF34C3F3130343F0FE
:104F70007F5141F44011CDF84C800022724BFBF779
:104F8000F3F865A3D3E90023FBF7A6FA64A3D3E9FA
:104F90000023FBF7EBF8064620460F46FBF732FAF4
:104FA00061A3D3E90023FBF797FA02460B4630468C
:104FB0003946FBF7DBF806460F46FBF73DFD0022BE
:104FC0008246002330463946FBF7F8FC48B150468C
:104FD000FBF718FA32463B46FBF7E6FC08B90AF144
:104FE000FF3ABAF1160F58D8DDE90C01574B03EB25
:104FF000CA03D3E90023FBF7E1FC00284FD00023CC
:105000000AF1FF3A0F93169B1C1B631E099349BFBD
:10501000C4F1010300230693002354BF06930993B0
:10502000BAF1000F3DDB099BCDF838A0534409933A
:1050300000230A93229B092B00F28C80052BC4BF0E
:10504000043B2293229BC8BF0024A3F10203D8BFD4
:105050000124032B00F28A80DFE803F02D4F4D5B23
:10506000DDE916431C4404F23243202BC3BFC3F1D5
:10507000400304F2124009FA03F3C3F12003C6BF50
:1050800026FA00F0184306FA03F0FBF7ABF9012308
:10509000A1F1F871013C13936FE70123B2E70F9080
:1050A000B1E7069BA3EB0A030693CAF100030A9338
:1050B00000230E93BEE700230B93239B002B58DCA9
:1050C0004FF001094B46CDF82090CDF88C9000228E
:1050D000686A4260042202F114069E4241684ED979
:1050E000284600F0D7FC039000284CD102464FF42C
:1050F000D571174BCCE60123DEE700230B93239BEE
:105100000AEB030909F10103012B0893B8BF01233E
:10511000DDE70123F2E700BF61436F63A787D23F5A
:10512000B3C8608B288AC63FFB799F501344D33F96
:1051300091720008A87200080000F07F8D720008CC
:1051400084720008617200080000F83F987300083C
:1051500003730008012400230B9422934FF0FF39BE
:1051600000221223CDF820902392B0E701230B9365
:10517000F4E7DDF88C904B46CDF82090A7E701319D
:1051800041605200A7E76B6A039A1A60089B0E2BD6
:1051900000F2A880002C00F0A580BAF1000F34DDE9
:1051A0009A4A0AF00F0302EBC3031AF4807FD3E993
:1051B0000034CDE910344FEA2A1416D0DDE90C0191
:1051C000934B0327D3E90823FBF7B0FACDE9040199
:1051D00004F00F048E4E54B9DDE91023DDE904011B
:1051E000FBF7A4FACDE9040129E00227F2E7E10781
:1051F00008D5DDE91001D6E90023FBF76DF9CDE90B
:105200001001013764100836E5E700F0A580DDE9FC
:105210000C01CAF100047D4B04F00F0203EBC20342
:10522000D3E90023FBF758F902270023CDE9040155
:10523000774E2411002C40F08480002BD2D10F9B9C
:10524000002B00F08B80DDE90434CDE91034DDE97A
:10525000100100226F4BFBF7B1FB00287ED0089BAA
:10526000002B7BD0B9F1000F38DDDDE91001002201
:10527000694BFBF731F94C46CDE904010AF1FF38DF
:1052800001373846FBF7BEF8DDE90423FBF724F9C4
:105290000022624BFAF76AFFA1F15076CDE91001C6
:1052A0001196002C5DD1DDE9040100225C4BFAF778
:1052B0005BFF02460B46CDE904233346109AFBF709
:1052C0009BFB002840F09C82DDE90401109A06F166
:1052D0000043FBF773FB002840F09082DDE90C34BB
:1052E000CDE90434179B002BC0F25281BAF10E0FA6
:1052F00000F34E81454B03EBCA03D3E90034CDE9FB
:105300000634239B002B80F2DB80089B002B00F3EC
:10531000D78040F07282DDE906010022404BFBF7A6
:10532000DBF8DDE90423FBF75DFB089C264600283B
:1053300040F048823123039F0AF1010A07F8013B3C
:1053400044E2E20705D5D6E90023FBF7C5F80123BF
:105350000137641008366DE7022770E7D046089CD5
:105360008FE70399294B214412910B9903EBC40356
:10537000DDE9106753E90223002955D000202949AF
:10538000FBF7D4F93B463246FAF7EEFECDE91001C1
:10539000039FDDE90401FBF74FFB0446FBF732F8FE
:1053A00002460B46DDE90401FAF7DEFE02460B4633
:1053B0003034CDE90423DDE9102307F8014BFBF776
:1053C000FDFA002874D1DDE9042300201149FAF721
:1053D000CBFEDDE91023FBF7F1FA002840F0B7809F
:1053E000129B9F423FF47AAFDDE9100100220A4B85
:1053F000FBF772F80022CDE91001DDE90401064B4C
:10540000FBF76AF8CDE90401C3E700BF9873000811
:10541000707300080000F03F0000244000001C40B2
:10542000000014400000E03F30463946FBF754F8D6
:10543000129BCDE91001039C1493DDE90401FBF7F5
:10544000FBFA1590FAF7DEFF02460B46DDE9040190
:10545000FAF78AFE159B0646303304F8013B129B8F
:105460000F469C424FF0000224D1DDE91001B04B01
:10547000FAF77CFE02460B4630463946FBF7BCFA8B
:10548000002863D1DDE910230020A949FAF76CFE5A
:1054900002460B4630463946FBF790FA00283FF4A7
:1054A0001DAF149F7B1E149317F8013C302BF8D0CE
:1054B000C2463BE09F4BFBF70FF8CDE90401BCE788
:1054C000039FDDE90489DDE9062340464946FBF7F1
:1054D0002DF9FBF7B1FA0446FAF794FFDDE906234C
:1054E000FAF7FAFF02460B4640464946FAF73CFEF9
:1054F00004F1300607F8016B039EDDF820C0BE1BE7
:10550000B44502460B4636D1FAF730FEDDE90623F4
:1055100080468946FBF770FA58BBDDE90623404612
:105520004946FBF741FA08B1E10722D4284659461B
:1055300000F0F0FA00233B70249B0AF10100186090
:10554000269B002B3FF4DEAC1F60DBE427463B4686
:105550001F4613F8012D392A07D1039A9A42F7D131
:105560003022039908F101080A701A7801321A7082
:105570009EE7D046EBE700226E4BFAF7ADFF002224
:10558000002380468946FBF70FFA00289BD0CDE721
:105590000B9A002A00F0D080229A012A00F3AE80F4
:1055A000139A002A00F0A68003F233430A9C069F58
:1055B000069A01211A440692099A28461A44099229
:1055C00000F05EFB0646002F0CDD099B002B09DD79
:1055D000BB42A8BF3B46069AFF1AD21A0692099A06
:1055E000D31A09930A9BF3B10B9B002B00F0A88000
:1055F000002C10DD31462246284600F0FFFB5A46BB
:1056000001460646284600F051FB8046594628468A
:1056100000F080FAC3460A9B1A1B04D0594628465C
:1056200000F0ECFB83460121284600F029FB0E9B8D
:105630000446002B40F386801A460146284600F0B7
:10564000DDFB229B0446012B7FDD4FF00008236920
:1056500004EB8303186900F0C5FAC0F12000099B30
:10566000184410F01F0000F09280C0F12003042BBA
:1056700040F38A80C0F11C00069B07440344069354
:10568000099B03440993069B002B05DD59461A46E6
:10569000284600F00DFC8346099B002B05DD2146C2
:1056A0001A46284600F004FC04460F9B002B70D0DD
:1056B0002146584600F06CFC00286ADA002359465F
:1056C0000A22284600F048FA0B9B83460AF1FF3A6B
:1056D000002B00F09481314600230A22284600F076
:1056E0003BFAB9F1000F064600F39380229B022B90
:1056F00057DC8EE0169BC3F1360357E7089B5C1E10
:105700000A9BA342B7BF0A9B1C1BE21A0E9BBEBF9B
:105710000A949B180E93089BB8BF0024002BBBBFB4
:10572000069B089A069F9F1AACBF089B00233FE781
:105730000000E03F000024400A9C069F0B9E42E7C9
:105740000A9A6BE7229B012B19DC049BBBB9059BD2
:10575000C3F313039BB9059B23F000431B0D1B05EB
:1057600083B14FF00108069B01330693099B013377
:1057700009930E9B002B7FF46AAF01206FE74FF077
:105780000008F6E79846F4E73FF47DAF18461C3072
:1057900072E7089B002B36DC229B022B33DDDDF801
:1057A0002090B9F1000F0DD121464B460522284625
:1057B00000F0D2F901460446584600F0E9FB002803
:1057C0003FF7B8AD239B039F6FEA030A4FF0000831
:1057D0002146284600F09EF9002E3FF4A7AEB8F10E
:1057E000000F05D0B04503D04146284600F092F99D
:1057F0003146284600F08EF998E600242646E1E777
:10580000C246264696E50B9BDDF82090002B00F063
:10581000FD80002F05DD31463A46284600F048FB62
:105820000646B8F1000F5CD02846716800F032F9E6
:10583000074628B9024640F2EA217F4BFFF728BB12
:10584000326906F10C01023292000C3000F014F9BA
:1058500001223946284600F02BFBB0460646039B42
:1058600001330893039B4B440A93049B03F0010309
:105870000993089B2146013B58460493FFF766FABB
:10588000034641463033069058460B9300F080FBA8
:10589000324681462146284600F096FBC2680746FC
:1058A0000B9B02BB0146584600F072FB02460B9B65
:1058B00039462846CDE90B3200F02CF9229B0C9A90
:1058C000089F43EA0201099B0B430B9B0DD1392B27
:1058D00029D0B9F1000F01DD069B3133049A137012
:1058E00076E73046B9E70122E2E7B9F1000F06DBBF
:1058F000229941EA0909099959EA010120D1002AAE
:10590000ECDD594601222846089300F0D1FA2146E1
:10591000834600F03DFB0028089B02DCDED1DA075D
:10592000DCD5392BD8D13923049A13703B461F4656
:1059300017F8012C013B392A50D001321A7047E781
:10594000002A03DD392BEED00133C7E7089A0A9904
:1059500002F8013C8A422AD0594600230A222846EE
:1059600000F0FAF8B04583464FF000034FF00A020A
:105970004146284607D100F0EFF880460646089BCE
:105980000133089375E700F0E7F8314680460023BD
:105990000A22284600F0E0F80646F0E7B9F1000FC9
:1059A000CCBF4F4601274FF00008039A17445946D1
:1059B00001222846089300F07BFA2146834600F036
:1059C000E7FA0028B2DC02D1089BDB07AED43B46E5
:1059D0001F4613F8012D302AFAD0F9E6039A9A42AD
:1059E000A5D131230AF1010A79E7144BFFF7A8BAD0
:1059F000269B002B7FF481AA114BFFF7A1BAB9F1C6
:105A0000000F03DC229B022B3FF7CBAE039F214606
:105A10005846FFF79BF9039A00F1300307F8013B62
:105A2000BA1A9145BADD594600230A22284600F0E9
:105A300093F88346EBE700BF037300086072000829
:105A4000847200080048704774010020024B014630
:105A5000186800F01DBC00BF20000020034610B5F0
:105A6000C9B202449342184601D1002003E00478F1
:105A700001338C42F6D110BD0A44914200F1FF334C
:105A800000D1704710B511F8014B914203F8014F56
:105A9000F9D110BD70B5466A04460D4676B910209E
:105AA000FFF7D4FF0246606220B96621174B184801
:105AB00000F0CEFDC0E901660660C660666AF36864
:105AC00083B1636ADB6853F82500B8B9012101FA94
:105AD00005F6721D2046920000F05EFB60B1C0E941
